{
  "address": "0x6EdEa7bdd4E1d43b28315C1bb3cb58C4cc49E5dD",
  "abi": [
    {
      "inputs": [
        {
          "internalType": "address",
          "name": "_owner",
          "type": "address"
        }
      ],
      "stateMutability": "nonpayable",
      "type": "constructor"
    },
    {
      "inputs": [],
      "name": "owner",
      "outputs": [
        {
          "internalType": "address",
          "name": "",
          "type": "address"
        }
      ],
      "stateMutability": "view",
      "type": "function"
    },
    {
      "inputs": [],
      "name": "price",
      "outputs": [
        {
          "internalType": "uint256",
          "name": "",
          "type": "uint256"
        }
      ],
      "stateMutability": "view",
      "type": "function"
    },
    {
      "inputs": [
        {
          "internalType": "uint256",
          "name": "_value",
          "type": "uint256"
        }
      ],
      "name": "setValue",
      "outputs": [],
      "stateMutability": "nonpayable",
      "type": "function"
    }
  ],
  "transactionHash": "0xc74b959333d7e0c42c1ea19fc8398ebd3c1cc2e47777a0e266bd76b2188cae59",
  "args": [
    "0x76F749EdA42f30BEd3F548aaae47dcd85A714417"
  ],
  "numDeployments": 3,
  "solcInputHash": "922bcf83b3faf36c7ce42e24f00871e9",
  "bytecode": "0x60a06040526000805534801561001457600080fd5b5060405161018538038061018583398101604081905261003391610044565b6001600160a01b0316608052610074565b60006020828403121561005657600080fd5b81516001600160a01b038116811461006d57600080fd5b9392505050565b60805160f961008c60003960006057015260f96000f3fe6080604052348015600f57600080fd5b5060043610603c5760003560e01c8063552410771460415780638da5cb5b146053578063a035b1fe146096575b600080fd5b6051604c36600460ab565b600055565b005b60797f000000000000000000000000000000000000000000000000000000000000000081565b6040516001600160a01b0390911681526020015b60405180910390f35b609e60005481565b604051908152602001608d565b60006020828403121560bc57600080fd5b503591905056fea26469706673582212208e08fc5390ab69c50d5cce1d2328374c9677eee76cd076944fa23f8c475a4c4f64736f6c63430008110033",
  "devdoc": {
    "author": "BuidlGuidl",
    "kind": "dev",
    "methods": {},
    "version": 1
  },
  "userdoc": {
    "kind": "user",
    "methods": {},
    "notice": "A smart contract that allows changing a state variable of the contract and tracking the changes It also allows the owner to withdraw the Ether in the contract",
    "version": 1
  },
  "storageLayout": {
    "storage": [
      {
        "astId": 7,
        "contract": "contracts/YourContract.sol:YourContract",
        "label": "price",
        "offset": 0,
        "slot": "0",
        "type": "t_uint256"
      }
    ],
    "types": {
      "t_uint256": {
        "encoding": "inplace",
        "label": "uint256",
        "numberOfBytes": "32"
      }
    }
  }
}